:1000000000800020BD010000ED180000ED18000088
:10001000ED180000ED180000ED180000B918000000
:10002000B9180000B9180000B9180000ED18000058
:10003000ED180000B9180000ED180000A918000024
:10004000ED180000ED180000ED180000ED1800009C
:10005000ED180000ED180000ED180000ED1800008C
:10006000ED180000ED180000ED180000ED1800007C
:10007000ED180000ED180000ED180000ED1800006C
:10008000ED180000ED180000ED180000ED1800005C
:10009000ED180000ED180000ED180000ED1800004C
:1000A0002D34000039340000ED180000ED18000078
:1000B000ED180000ED180000ED180000ED1800002C
:1000C000ED180000ED180000ED180000ED1800001C
:1000D000ED180000ED180000ED180000ED1800000C
:1000E000ED180000ED180000ED180000ED180000FC
:1000F000ED180000C1070000ED1800008924000081
:10010000ED180000410B0000ED180000ED18000094
:10011000ED180000ED180000ED180000ED180000CB
:10012000ED180000ED180000ED180000ED180000BB
:10013000ED180000ED180000ED180000ED180000AB
:10014000ED180000ED180000ED180000ED1800009B
:10015000C5530000DD530000F55300000D540000AE
:10016000ED1800001D120000ED180000ED18000051
:10017000ED180000ED180000ED180000ED1800006B
:10018000ED180000ED180000ED180000ED1800005B
:10019000ED180000ED180000ED180000251A000011
:1001A000751A0000FD1A0000B91B00003D1C00007C
:1001B000ED180000ED180000793D000008B5484B2F
:1001C0004CF220521A804DF628121A8000BF00BF50
:1001D00001F08FFB434B4FF010621A60424A9A6065
:1001E000424ADA60A3F53043203B1A6812F4807269
:1001F00004D13F490A604FF4A8521A603D4B1A7867
:10020000110703D51A7842F008021A7000233A4AFF
:100210003A499818884204D23949595899500433B8
:10022000F5E7384B384A93424FF0000202D243F8C8
:10023000042BF7E7354B1A60A3F60813802203F866
:10024000012B334A9342F9D1324B0A221A70A3F69A
:10025000FF7324221A70A02203F8012C2E4B1A7867
:100260009207FBD51A78D006FCD41A7802F00C025B
:10027000082AFAD1294B03221A7040225A70264BC1
:100280001A789106FBD51A785206FCD5244B254ADC
:100290001A60254B20221A701F4B1B7803F00C03A9
:1002A0000C2BF9D1214B02221A60214A43F8442C2D
:1002B000204B214A1A60072243F8042C62B601F051
:1002C0003DFF0B4B1B68DB0702D51C4801F0D4FC3B
:1002D0000AF0DAFF01F014FB04F02CF8FEE700BF8F
:1002E0000E20054030800440823F04000100002BB6
:1002F00014D0034002D007402085FF1FE896FF1F5F
:10030000A4050200E896FF1F3CE2FF1F08ED00E095
:100310005FE400E00050064006400640044006400E
:10032000448004400000030100400640488004402F
:10033000C010050014E000E0FF76010000DD685009
:10034000FFFFFFFFFFFFFFFFFFFFFFFFFFFFFFFFBD
:10035000FFFFFFFFFFFFFFFFFFFFFFFFFFFFFFFFAD
:10036000FFFFFFFFFFFFFFFFFFFFFFFFFFFFFFFF9D
:10037000FFFFFFFFFFFFFFFFFFFFFFFFFFFFFFFF8D
:10038000FFFFFFFFFFFFFFFFFFFFFFFFFFFFFFFF7D
:10039000FFFFFFFFFFFFFFFFFFFFFFFFFFFFFFFF6D
:1003A000FFFFFFFFFFFFFFFFFFFFFFFFFFFFFFFF5D
:1003B000FFFFFFFFFFFFFFFFFFFFFFFFFFFFFFFF4D
:1003C000FFFFFFFFFFFFFFFFFFFFFFFFFFFFFFFF3D
:1003D000FFFFFFFFFFFFFFFFFFFFFFFFFFFFFFFF2D
:1003E000FFFFFFFFFFFFFFFFFFFFFFFFFFFFFFFF1D
:1003F000FFFFFFFFFFFFFFFFFFFFFFFFFFFFFFFF0D
:10040000FFFFFFFFFFFFFFFFFFFFFFFFFEFFFFFFFD
:1004100010B5054C237833B9044B13B10448AFF33E
:1004200000800123237010BDE896FF1F000000002C
:100430009C05020008B5064B1BB106480649AFF300
:1004400000800648036813B1054B03B1984708BD07
:10045000000000009C050200EC96FF1FE896FF1FBD
:1004600000000000194B1A6842F480621A60184BB1
:1004700000221A705A709A70DA701A71154B40F295
:1004800013321A604FF451725A60134BC0F3443266
:100490001A70C0F347125A7000F01F000F4A98728A
:1004A0000221042313705174D3740D4B88221A70E7
:1004B0003C2203F80D2C0B4B40226FF44A711A704A
:1004C0000B444FF400521A60704700BF3480044060
:1004D0000497FF1F40A0044000A0064002A0064071
:1004E00010A006402DE400E0134A137800F0030149
:1004F00003F0EC030B43410748BF43F010031370B4
:1005000000F00F03042B0D4B03D11A7842F0400288
:100510001A700B490A7810F0100F02F0EF0218BFA2
:1005200042F010020A701A78810602F0EF0248BF0A
:1005300042F010021A70704702A0064006A0064062
:1005400005A0064008B50D4B1B685B0500D408BD2F
:100550000B4B197901F0FF0211B100F087FBF7E7AF
:1005600008494FF400500860074908480A7040F2F3
:100570000311016041601A705A7008BD3480044054
:100580000497FF1F84E100E003A0064040A0044060
:1005900070B50446094D2B7903F0FF06002BF9D105
:1005A0002046012101F020FC2046314601F0EEFBFF
:1005B000034B53F83430AB6070BD00BF0497FF1F8E
:1005C000EC1A0100F8B51C4B1B685A05074631D5DB
:1005D0001A4EB3680BB101221A70B4780134402C62
:1005E00028BF0024F378154DA34219D101F0A6F9D4
:1005F000402810DC124B1B781B06F3D5EB78013337
:10060000402B28BF0023F218DBB2117B0D4AC9B280
:100610001170F370E6E7FF28E4DD00F027FBE1E767
:100620002B19FFB21F7301232B71074BE4B2BC22BD
:10063000AC701A70F8BD00BF348004400497FF1FEF
:1006400004A0064007A0064003A0064000F00F00EB
:10065000092894BF30303730FFF7B4BF2DE9F84395
:10066000234B1B685A05074689463FD5214CA36892
:100670000BB101221A703E4607EB09039E4232D2AB
:10068000A57894F803800135402D28BF00255FFA36
:1006900088F8A8451ED1184BBC221A7001F04EF9FB
:1006A000402810DC154B1B781B0610D5E37801336E
:1006B000402B28BF0023E218DBB2117B104AC9B2DD
:1006C0001170E37003E0FF2801DD00F0CFFAE3785A
:1006D0004345E3D0631916F8012B1A73EDB20123D9
:1006E0002371A570C8E7044BBC221A70BDE8F883DB
:1006F000348004400497FF1F03A0064004A0064076
:1007000007A0064008B5034B1B7913B100F0AEFA01
:10071000F9E708BD0497FF1F044A10785378C0B268
:10072000DBB2984238BF4030C01A70470497FF1FB1
:10073000094A11785378DBB2994209D00133402B32
:1007400028BF0023D118DBB291F84C0053707047DA
:100750004FF0FF30704700BF0497FF1F084A117821
:100760005378DBB2994208D00133402B28BF0023D5
:10077000134493F84C00C0B270474FF0FF307047FD
:100780000497FF1F0A4B1B685B050FD5094B1A78AE
:1007900002F0CB021A70084A402111701A7842F018
:1007A00034021A70054B5A78D2B21A70704700BFE3
:1007B0003480044003A0064011A006400497FF1FA8
:1007C000F0B52F4A137813F0300F25D072B62D4BA9
:1007D0002D4D1B7803F0FF042BB92B782B4B4021B8
:1007E000197062B618E062B6294B19785E78C9B202
:1007F000F6B218464B1C402B2F7828BF0023B3427B
:10080000FFB203D0C11881F84C701946631E13F073
:10081000FF04EFD1C9B201701E4B1878C0B20606B2
:100820001FD513781D061CD519498E78CB78F6B2E2
:10083000DBB2B3420DD00133402B28BF0023147824
:10084000CC18257B104CEDB225700D342478072C84
:10085000EFD9DBB2CB7013781C0602D50D4B7C218F
:10086000197041060BD513785B0608D5084B00229A
:100870001A719B6803B11A70064B3C221A70F0BDC6
:1008800004A0064016A0064007A0064011A006409E
:100890000497FF1F03A0064038B5451E15F8014F09
:1008A00044B10A2C02D10D20FFF78CFE2046FFF741
:1008B00089FEF3E738BD10B504460009FFF7C6FE10
:1008C0002046BDE81040FFF7C1BE10B50446000A3F
:1008D000FFF7F1FF2046BDE81040FFF7ECBF10B571
:1008E0000446000EFFF7E7FF200CFFF7E4FF200AA5
:1008F000FFF7E1FF2046BDE81040FFF7DCBF00BF77
:10090000154B1A6842F480521A60144A002313707F
:1009100053709370D3701371114A40F21331116008
:100920004FF4517151600F4AC0F344311170C0F35C
:10093000471100F01F0051709072937013740A4BAE
:100940002C221A70094B40226FF44B711A700B4421
:100950004FF400321A607047348004409097FF1FB4
:1009600008C0044000C0064003C0064031E400E077
:10097000134A137800F0030103F0EC030B43410723
:1009800048BF43F01003137000F00F03042B0D4B0E
:1009900003D11A7842F040021A700B490A7810F01D
:1009A000100F02F0EF0218BF42F010020A701A781E
:1009B000810602F0EF0248BF42F010021A70704741
:1009C00002C0064006C0064005C0064008B50D4BF3
:1009D0001B68DB0400D408BD0B4B197901F0FF0242
:1009E00011B100F043F9F7E708494FF4003008600F
:1009F000074908480A7040F20311016041601A700B
:100A00005A7008BD348004409097FF1F84E100E0D5
:100A100003C0064008C00440F8B51A4B1B68DA044E
:100A200007462DD5184EB4780134282C28BF002451
:100A3000F378154DA34219D100F080FF402810DC57
:100A4000124B1B781B06F3D5EB780133282B28BFFC
:100A50000023F218DBB251790D4AC9B21170F3705C
:100A6000E6E7FF28E4DD00F001F9E1E72B19FFB22A
:100A70005F7101232B71074BE4B2AC22AC701A708A
:100A8000F8BD00BF348004409097FF1F04C00640AB
:100A900007C0064003C0064038B504464518AC42BE
:100AA00004D014F8010BFFF7B7FFF8E738BD08B51D
:100AB000034B1B7913B100F0D9F8F9E708BD00BF6B
:100AC0009097FF1F044A10785378C0B2DBB2984267
:100AD00038BF4030C01A70479097FF1F094A1178FD
:100AE0005378DBB2994209D00133402B28BF002351
:100AF000D118DBB291F82D00537070474FF0FF30E2
:100B0000704700BF9097FF1F084A11785378DBB2F7
:100B1000994208D00133402B28BF0023134493F897
:100B20002D00C0B270474FF0FF3070479097FF1F05
:100B3000024B5A78D2B21A70704700BF9097FF1FCD
:100B400070B51E4803789B0610D51D4B1D4A1C78B6
:100B5000137851780133402B28BF00238B42E4B235
:100B600004D0D118DBB281F82D40137016490C78EF
:100B7000E4B2260616D503781D0613D5114A9578DA
:100B8000D378DBB29D4202D16C230B700AE00133B3
:100B9000282B28BF0023D518DBB26E79084DF6B29A
:100BA0002E70D370620607D503785B0604D5054B1B
:100BB00000221A712C230B7070BD00BF04C00640C8
:100BC00007C006409097FF1F03C006400023C25C89
:100BD0000AB10133FBE71846704710B50023B0FB9C
:100BE000F2F402FB1400092894BF30303730C0B251
:100BF000C85420460CB10133F1E7CA18547022469C
:100C00009A4206DA885CCC5C8C54C8540132013BB1
:100C1000F6E7084610BD031E10B50C4603DBBDE821
:100C20001040FFF7DABF2D2001F8010B5842FFF703
:100C3000D4FF204610BDF0B50F4687B016461C46BF
:100C40003A4633460546084901A80BF043F92846C1
:100C500009F080FF02460B46204601A90BF03AF945
:100C6000204607B0F0BD00BF701A01007047FFFFBB
:100C700072B60C4A1168B1FA81F30F2B02D962B631
:100C8000002070474FF00040D84021EA0001116079
:100C900062B6054948225343C8180022CA50426030
:100CA000704700BF2485FF1FA080FF1F0C4B482208
:100CB000C31AB3FBF2F30F2B11D80A4A127822B1F0
:100CC000094A12780AB100F02BBA72B6074A4FF0FF
:100CD000004121FA03F311681943116062B67047AD
:100CE000A080FF1F5498FF1F7498FF1F2485FF1FCB
:100CF0001FB572B6124B70221A70124A4121117040
:100D00000F2102F8011C80221A701A781206FCD5F5
:100D100062B60D4B01AC186821460A22FFF75DFF51
:100D20000023E15C094A29B102EB430001330A2B9D
:100D30004180F6D101335B00137004B010BD00BFD9
:100D40000000024007000240080002402885FF1F03
:100D5000044A13783B2B03D8591C1170024AD05413
:100D6000704700BFEDE1FF1FF1E1FF1F70B51C4CA4
:100D70000123237063680646D3B945F62155194B04
:100D80001B7863B3032000F0B7F9052802D9013DB1
:100D900006D107E0FFF76CFF60600028F7D007E09E
:100DA000237A13B10123237270BDFFF75FFFE6E7DB
:100DB00061684A8800232372531C01EB82020F2BC7
:100DC000966001D84B8008E040230B80032000F0A0
:100DD000E5F9FFF74DFF024B58600023237070BD0B
:100DE0000098FF1F7498FF1F38B504460D46032D69
:100DF0000ED963782278A0781B0443EA022343F0DB
:100E0000040343EA0060FFF7B1FF0334033DEEE75C
:100E10000AD163782278A0781B0443EA022343F0C6
:100E2000070343EA00600FE0022D07D160782378C2
:100E3000000440EA032040F0060005E0012D07D140
:100E40002078000240F00500BDE83840FFF78EBF73
:100E500038BD10B5074C23785BB9616849B14B8840
:100E60003BB19B000B80032000F098F9FFF700FFD7
:100E7000606010BD0098FF1F2DE9F041704CE368E1
:100E8000804627468BB96F4B1B78002B00F0D5802E
:100E9000042000F001F9E060002800F0CE80058811
:100EA0001DB9FFF703FFE560C7E0F868428802F16B
:100EB00008010432445801888A4201D2428006E087
:100EC000FFF7F4FE042000F0E7F85D4BD86004F073
:100ED0000F05200AA5F1080200F00F06062A06F108
:100EE000010670D8B8F1000F02D0B04540F0A580DF
:100EF000082DC4F3033307D1082B40F09E80524BDA
:100F000000221A703B691CE0092D12D1092B40F018
:100F10009480220E4C4B4FEA144103D001201870EC
:100F20007B6901E01A703B69002B43D03046C9B29F
:100F30000DE00A2D0DD10A2B7FD1434B02221A70EE
:100F4000BB69002B36D03046C4F30741220E9847C8
:100F500030E00B2D06D10B2B6FD13B4B03221A70C7
:100F6000FB69EEE70C2D06D10C2B66D1364B042223
:100F70001A703B6A07E00D2D0BD10D2B5DD1324B62
:100F800005221A707B6AABB13046C4F3074198471B
:100F900010E00E2D51D10E2B4FD12B4B06221A7083
:100FA000BB6A3BB1620C02F47E52C4F30641304688
:100FB00011439847254B1E70254B220C1A70254B68
:100FC000240E1C7024E0042D08D1C0B2FFF7C0FE2F
:100FD000C4F30740FFF7BCFE200E22E06A1F022A7E
:100FE00019D8C0B2FFF7B4FE052D08D0C4F30740EE
:100FF000FFF7AEFE072D02D1200EFFF7A9FE164B1C
:10100000134A1978117000221A700F4B07221A70B8
:101010000120BDE8F0810F2D0FD10F4A12781AB1CF
:10102000C0B2FFF795FE08E0074A08211170FA6A7E
:10103000002ABFD0C0B29047BCE70020BDE8F081D5
:101040000098FF1F7498FF1FECE1FF1FF0E1FF1FE6
:10105000EEE1FF1FEFE1FF1FEDE1FF1F70B50C4B4D
:101060000C4C1A7842F0020504EBC50682F001022E
:10107000706058781A7000280CBF8826C82680F047
:10108000010046EA0141587044F8351070BD00BFB8
:101090003098FF1F0080FF1F431E032B10B510D890
:1010A00072B6094A02EB8302506808B14168516088
:1010B000064A018832F81340611A22F8131062B60A
:1010C00010BD002010BD00BF3098FF1F2EE2FF1F93
:1010D000013803280CD8074B03EB8000436972B634
:1010E00000201BB11A885B681044FAE762B67047AB
:1010F000002070473098FF1F013803280BD872B6C4
:10110000064B03EB80004369002013B101305B689C
:10111000FBE762B670470020704700BF3098FF1FA2
:1011200010B572B60123184A1A4412F8012C12079E
:101130001ED59900154A52F831402CB902EB4313E1
:1011400008305860124B09E041F0010152F831407B
:1011500074B902EBC103083058600E4B42F83130CD
:101160000D4B93F82420013A83F8242062B610BD79
:101170000133052BD7D162B6074B002283F8242018
:10118000BDE81040FFF792BD7C1A01000080FF1FF0
:1011900088004000C80040003098FF1F421E032A0C
:1011A00030B533D81A4B400140F01000184472B6E5
:1011B000184CA31893F82530032B09D8DFE803F067
:1011C000130215050830022310E0083004230DE057
:1011D0009200A318586908B9596101E0DB6A5960A7
:1011E0002244D16211E0032300E00523224410F0E1
:1011F000080F82F8253001F108030A8843600CBF0C
:101200008823C82343EA0243036062B630BD00BFAF
:101210000080FF1F3098FF1F00BE70472DE9F84F78
:10122000AC4F3C78E4B214F0040F3D461DD0AA4BFD
:1012300093F84420BAB193F8451001F0FF0229B1A8
:10124000013AD2B283F8452002B900BEA34A117810
:1012500001F0FF0329B1013BDBB213700BB901F0C0
:1012600033FCFFF7F6FD04233B7004F0080303F0A2
:10127000FF02002B00F06F82994B9A4D1A78D2B280
:1012800014094FEA920840F0D98155F8382005EB4F
:10129000C803C2F38302013A5B680C2A00F2CA81D8
:1012A000DFE812F083018301C801C801C801C80149
:1012B000C801C801A301C801C801C8010D001A680E
:1012C000854C5B68A264E36492B2874B45F8383082
:1012D00040F2816000210123824221652961A961D8
:1012E0006370A04617D8B2F5D06F80F00F81B2F5C9
:1012F000817F00F0CB8006D8802A00F0B280822A5D
:1013000000F0B4801CE140F202339A4200F0CF803A
:10131000B2F5A06F14E0B2F5106F14D008D8B2F592
:10132000086F40F00D8194F8442084F83C200FE1D0
:1013300040F621139A4200F0358140F621239A426B
:1013400000F00281FCE0674E94F84A3084F84430A3
:1013500006F18009336A1B0603D5706A0838FFF767
:10136000A5FC08364E45F5D10026B146DFF898A118
:1013700056F80A0028B1D0F804B0FFF797FC584699
:10138000F8E75A4B4AF80600A3F1400AF05056F825
:101390000A0028B1D0F804B0FFF788FC5846F8E7F7
:1013A000534B544AF050073B22F8190019F8032018
:1013B0004AF80600023A032A08D8DFE802F00204DD
:1013C0000204002200E0012203F8092009F10109CA
:1013D000B9F1040F06F10406C8D1002384F82430C3
:1013E0000126454A454B3244334412F8012C9B00F8
:1013F00012F0080F1A704FEA860925D0FFF738FC63
:1014000038B105EB4613083058603D4B45F839308C
:1014100006E098F8243045F83900013388F8243084
:10142000FFF726FC49F0010338B105EBC302083091
:1014300050602D4A45F8332006E045F8330098F80F
:101440002430013388F8243049F00202013649F093
:1014500003090023052E45F8323045F83930C0D154
:1014600073E084F83C1084F83D1070E0B4F84C2030
:10147000042A65D884F83C1084F83D109100214A74
:10148000525C950763D584F83C3060E0B4F84C209A
:1014900002F07F03042B53DCB4F84A30002B4FD109
:1014A0009100184A0A44117821F002010FE0B4F8C3
:1014B0004C2002F07F03042B42DCB4F84A30002BAE
:1014C0003ED191000F4A0A44117841F00201117097
:1014D0003BE000BF802007403098FF1F259AFF1F88
:1014E000902007400080FF1FC80040008498FF1F25
:1014F0005C98FF1F2EE2FF1F7C1A010030C801100C
:1015000088004000C02007403498FF1FB4F84A20EC
:10151000B4F84C10A14B53F8085CA3F10C007DB15A
:1015200033F80C6C964209D133F80A6C8E4205D11F
:10153000120A032A0CBF2B7803890BE00C33EAE76D
:10154000974B0F221A702DE000231D4602E0022364
:1015500008F13C05B4F84E80434538BF9846B8F1D1
:10156000400F34BF4646402628463146FFF776FDF9
:10157000B8EB0608354403D1402E13D1464604E0AB
:10158000B8F1400F34BF4646402628463146FFF7A3
:1015900065FDB8EB0608354401D1402E02D1256522
:1015A000A4F8648001227F4B43E07F4A7F48916C1E
:1015B000814216D1D16C7E48814212D11978A92975
:1015C0000FD1597845290CD19978C22909D1DB78F6
:1015D0006B2B06D100200523014682F84530FFF72A
:1015E0003DFD744B45F8383024E06F4C266DA6B1B4
:1015F000B4F86480B8F1400F34BF4546402530460A
:101600002946FFF72BFDC5EB08039BB2A4F8643015
:101610000BB9402D00D173192365B4F84820624BF3
:10162000B2F5A06F06D1002283F8492093F84A2032
:10163000614B1A705B4B01221A7089E005EBC806FA
:10164000013C736802F00802A3F10800E4B202F062
:10165000FF01002A45D0FFF729FB534B03EB840C15
:101660001819DCF814201AB35168CCF8141002F1E0
:101670000801716090F82510032910D8DFE801F007
:101680000205080B1C44032307E01C44022304E06A
:101690001C44052301E01C44042384F8253016F083
:1016A000080F12880CBF8823C82343EA02434DE089
:1016B00090F82520032A0BD8DFE802F04A4A0205F9
:1016C0001C44002301E01C44012384F825303FE042
:1016D00016F0080F1C440CBF0222032284F82520B8
:1016E00036E055F83820120C23F8082C42B3DFF806
:1016F000B8C023F8061C4FEA840E43F8041C0CEB18
:101700000E014B680BB9486001E04B6D58600CEB63
:101710000E03DFF894905865284B33F814100A44F0
:1017200023F81420FFF7A4FA10B10830706007E026
:1017300099F8243045F83800013389F8243007E05F
:101740001C4B1F4A16F0080F08BF134645F83830E7
:1017500008233B7064E5E0073CD5134C1148184E54
:1017600021460223037001F8682B164BA8341E6033
:1017700059601A619A619E60DC60094B0D211970F5
:101780001149FF230B702B700A74104A1370104B11
:101790009F221A7001230370BDE8F88F8C1A010094
:1017A000C0200740942007403098FF1F2109000304
:1017B00001000400C8004000982007402EE2FF1FEF
:1017C000880040000080FF1F882007408C200740D1
:1017D00084200740210604D5094B0D221A7080236E
:1017E0002B70A20705D5074B1A78D2B21A700223C4
:1017F0002B70E30644BF10232B70BDE8F88F00BFA9
:10180000C02007408820074008B5FFF771FA002381
:101810001F4A00219950D0180833882B4160F7D116
:101820001C4B196841F48021196003F52833D83323
:1018300080211970187818490006FBD4174BC2F3A1
:1018400007201870C2F30740120E18751A76144A52
:10185000FF231370137202F8703C0B7843F04003BF
:101860000B7001230021137582F8801013710D4B4A
:1018700070226FF450711A700B444FF400721A60AA
:1018800003F1C04303F5C82310221A7008BD00BF3E
:101890000080FF1F348004400C2107409C2007403B
:1018A0008020074049E400E0024B1A6801321A60C8
:1018B000704700BFA099FF1F08B50B4C2368580361
:1018C00001D5FFF7ABFC2368590501D5FEF778FF7A
:1018D00023681A0501D500F0D7FD2368DB04ECD599
:1018E000FFF72EF9E9E700BF3480044008B5FFF7A1
:1018F000E3FF024B10221A80704700BF0020054012
:101900007047034A1368184410601846704700BFB8
:101910001886FF1F002070474FF0FF3070474FF4CC
:1019200000534B6000207047012070474FF0FF309C
:101930007047FEE7FEE7012070477047EFF313831F
:101940009BB9EFF3108098B9EFF3058323B10F2B08
:1019500004D9084A985C01E04FF48070EFF31183DA
:101960003BB1834238BF184670474FF0FF30704795
:1019700018467047F0E300E0084B4FF400021A608D
:101980004FF080721A604FF000721A604FF0806260
:101990001A604FF000621A60704700BF08E100E073
:1019A000212830B521D8042A1FD8DFE802F0070922
:1019B000050B03000B2306E00A2304E0082302E0E2
:1019C0000C2300E00923094A02EBC002526872B6F8
:1019D0001468074D24F47024146044F0807444EAC1
:1019E000034345F82010136062B630BDEC1A0100C5
:1019F0001899FF1F094B03EBC0035A6872B61368AE
:101A000023F0877323F4803343F080731360044B17
:101A1000002243F8202062B6704700BFEC1A010094
:101A20001899FF1F114B10B51C681C60E00404D509
:101A30000F4BDA680AB1DB689847A10404D50C4B58
:101A40001A690AB11B699847A20604D5084B1A6E99
:101A50000AB11B6E9847E30606D5054BD3F88420E0
:101A600012B1D3F88430984710BD00BFA090044055
:101A70001899FF1F1F4B10B51C681C60E00304D5AC
:101A80001D4B1A680AB11B689847A10304D51A4B6D
:101A90005A680AB15B689847E20704D5164B1A6C7E
:101AA0000AB11B6C9847A30704D5134B5A6C0AB1B3
:101AB0005B6C9847200704D50F4B9A6C0AB19B6C5E
:101AC0009847610704D50C4BDA6C0AB1DB6C984778
:101AD000220304D5084B5A6E0AB15B6E9847630324
:101AE00006D5054BD3F8802012B1D3F88030984743
:101AF00010BD00BFA0A004401899FF1F2C4B10B5CB
:101B00001C681C60200704D52A4B5A6A0AB15B6A1C
:101B10009847E10604D5274B9A6A0AB19B6A984711
:101B2000620604D5234BDA6A0AB1DB6A98472306BA
:101B300004D5204B1A6B0AB11B6B9847A00604D53D
:101B40001C4B5A6B0AB15B6B9847E10704D5194BE4
:101B5000DA6B0AB1DB6B9847A20704D5154B9A6D77
:101B60000AB19B6D9847630704D5124BDA6D0AB131
:101B7000DB6D9847A00504D50E4BDA6E0AB1DB6E1B
:101B80009847E10504D50B4B1A6F0AB11B6F9847B4
:101B9000620504D5074B5A6F0AB15B6F984723055E
:101BA00004D5044B9A6F0AB19B6F984710BD00BFD4
:101BB000A0B004401899FF1F1E4B10B51C681C6094
:101BC000E00704D51C4B9A680AB19B689847210628
:101BD00004D5194B5A690AB15B699847E20604D5E6
:101BE000154B9A690AB19B699847630704D5124B54
:101BF000DA690AB1DB699847200704D50E4B1A6AE7
:101C00000AB11B6A9847A10704D50B4B9A6B0AB11E
:101C10009B6B9847A20604D5074B1A6D0AB11B6D42
:101C20009847630604D5044B5A6D0AB15B6D98471B
:101C300010BD00BFA0C004401899FF1F094B10B58C
:101C40001C681C60A20704D5074B9A6E0AB19B6EF4
:101C50009847E30704D5044BDA6F0AB1DB6F984766
:101C600010BD00BFA0D004401899FF1F014B186899
:101C7000704700BF00D00340044B054900221A60A2
:101C80000A60044A106010221A60704714D00340A2
:101C900004D0034000D0034000280EDB02024FF4C2
:101CA0008073B2F5004F06D3013B012BC0EB02015C
:101CB00001D00A46F5E7120A10E0404202024FF452
:101CC0008073B2F5014F06D3013B012BC0EB02013B
:101CD00001D00A46F5E7120AC2F58072013B0249BB
:101CE00042EA03220A6070470CD0034018B1102862
:101CF00028BF102000E00120014B1870704700BF82
:101D00001C86FF1F10B500234FF437721A41914211
:101D100002D80133072BF7D1154A1A4102EB5102C1
:101D2000B2FBF1F101394FF6FF72914228BF114623
:101D3000C21E012A06D80F4A0F4C002010602060F6
:101D40000E480FE0421F012A06D9A0F10902012A1C
:101D500002D91438032809D8094A0A4C0020106017
:101D60002060094843F008030160136010BD00BF04
:101D7000006CDC0200900340049003400890034094
:101D8000008003400480034008800340212810B5F0
:101D900018D80D4A52F8303093F880423CB10122F5
:101DA00011B183F8802010BD83F8002110BD02EB33
:101DB000C00043681A6811B142F0030201E022F04A
:101DC00002021A6010BD00BFEC1A0100212806D8DB
:101DD000044B53F8303093F80002C0B27047002033
:101DE000704700BFEC1A0100212816D80B4A02EBFD
:101DF000C00301295B6852F8302004D182F88012B8
:101E00004FF4A27208E0002082F8800211B94FF46A
:101E1000807201E040F203121A607047EC1A010070
:101E2000282838B5604A04460B4611D112780B2A8F
:101E300004D8C2F10C0201FA02F304E00C2A1CBF20
:101E40000C3A41FA02F31846BDE8384000F00ABDEA
:101E500011780125002B05FA01F2D8BF002102DD1F
:101E6000934205D32946FFF791FF2046294697E084
:101E70000338C2B2012A01D84C4A06E0192C01D01D
:101E8000202C01D14A4A00E04A4A126802FB033280
:101E9000CA401D287BD8DFE800F00F171F287A7A88
:101EA000313A7A7A7A7A7A7A7A7A7A434C555E7AC1
:101EB000707A7A7A7A7A7A673F4B1A6003F58033C0
:101EC0004FF45172203360E03C4B1A6003F58033CD
:101ED0004FF451721C3358E0394B1A6003F59F33AD
:101EE00040F2444203F5EA734FE0364B1A6003F5C3
:101EF0009F3340F2444203F5F07346E0324B1A60E0
:101F000003F5973340F2444203F5F6733DE02F4B5F
:101F10001A6003F5973340F2444203F5F47334E05A
:101F20002B4B1A6003F59F3340F2444203F5EE73E6
:101F30002BE0284B1A6003F59F3340F2444203F52F
:101F4000EC7322E0244B1A6003F5973340F24442CD
:101F500003F5FA7319E0214B1A6003F5973340F249
:101F6000444203F5F87310E01D4B1A60A3F5DB2320
:101F70004FF45172A3F5F96307E01A4B1A60A3F509
:101F8000DB234FF45172A3F2CC731A6038BD7F2B60
:101F90002046D4BF00210121FFF7F8FE2046012191
:101FA000BDE83840FFF720BF1C86FF1F08900340A4
:101FB00008800B40088003401090034018900340B5
:101FC0004880034030800340208003402880034045
:101FD0003880034040800340108003401880034055
:101FE00010800B4018800B402DE9F04107460E464B
:101FF00090460824012505EA08013846FFF7C6FE89
:1020000030460121FFF7C2FE30460021FFF7BEFE39
:102010006D00013CEDB2EED1BDE8F0812DE9F0415B
:1020200007460E4690460824802505EA08013846F2
:10203000FFF7ACFE30460121FFF7A8FE3046002135
:10204000FFF7A4FE013C4FEA5505EED1BDE8F08153
:1020500012B91A46FFF7C8BF1A46FFF7DFBF2DE9CE
:10206000F04180460F46082400250126384601210C
:10207000FFF78CFE4046FFF7A9FE00B13543384616
:102080000021FFF783FE7600013CF6B2EED1284630
:10209000BDE8F0812DE9F04180460F460824002577
:1020A000802638460121FFF771FE4046FFF78EFE7D
:1020B00000B1354338460021FFF768FE013C4FEA86
:1020C0005606EED12846BDE8F0810AB9FFF7C7BF32
:1020D000FFF7E0BF72B60C4B0C491A680C4BD3F8F3
:1020E0008830096862B6490102D5322A88BF0133B7
:1020F000C2F5BB326021FF32B2FBF1F24FF47A70CD
:1021000000FB0320704700BF18E000E004ED00E092
:102110001899FF1F38B50446FFF7DCFF054664B188
:10212000FFF7D8FF401BB0F57A7F03D3013C04D002
:1021300005F57A75FEF79AFDF2E738BD10B5FFF7A1
:102140001BFC174B174A184C00204BF6FF71186008
:102150005960282313609360136193611362936243
:10216000136393630922226004F5805404342060D1
:102170006160A360236144F8042C04F5FE24206010
:102180000A4801600A490B608B600A4B1A6000F034
:1021900033FA0420FFF7BEFFBDE81040FFF734BB61
:1021A000048003400C8003400080034008800B4003
:1021B0000C800B4000800B4070B50E2405464C434C
:1021C0002B782BB1013CFBD1002070BD013CFBD032
:1021D0002B78002BFAD0FFF77DFF06462B7813B142
:1021E000013CFBD1F0E7FFF775FF801B70BD70B5B8
:1021F0000E2405464C432B782BB9013CFBD1002023
:1022000070BD013CFBD02B78002BFAD1FFF762FFA9
:1022100006462B7813B9013CFBD1F0E7FFF75AFFD4
:10222000801B70BD21280BD8064B53F8300000F5F9
:10223000007011B11146FFF7BFBF1146FFF7D7BFBE
:1022400000207047EC1A0100154B1A6842F4006236
:102250001A60144A0023137053709370D370137173
:10226000114A40F2133111604FF4517151600F4A1D
:10227000C0F344311170C0F3471100F01F005170DA
:102280009072937013740A4B2C221A70094B4022DF
:102290001A70A3F22B334FF400421A60704700BF4C
:1022A00034800440A499FF1F0CB0044000B00640E5
:1022B00003B006402FE400E0134A137800F0030156
:1022C00003F0EC030B43410748BF43F010031370C6
:1022D00000F00F03042B0D4B03D11A7842F040029B
:1022E0001A700B490A7810F0100F02F0EF0218BFB5
:1022F00042F010020A701A78810602F0EF0248BF1D
:1023000042F010021A70704702B0064006B0064054
:1023100005B0064008B50D4B1B681B0500D408BD71
:102320000B4B197901F0FF0211B1FEF79FFCF7E7A3
:1023300008494FF400400860074908480A7040F215
:102340000311016041601A705A7008BD3480044066
:10235000A499FF1F84E100E003B006400CB00440E4
:10236000F8B51A4B1B681A0507462DD5184EB478D8
:102370000134282C28BF0024F378154DA34219D12D
:10238000FFF7DCFA402810DC124B1B781B06F3D554
:10239000EB780133282B28BF0023F218DBB25179E8
:1023A0000D4AC9B21170F370E6E7FF28E4DDFEF7CD
:1023B0005DFCE1E72B19FFB25F7101232B71074B25
:1023C000E4B2AC22AC701A70F8BD00BF3480044097
:1023D000A499FF1F04B0064007B0064003B00640B2
:1023E00038B504464518AC4204D014F8010BFFF789
:1023F000B7FFF8E738BD08B5034B1B7913B1FEF7FB
:1024000035FCF9E708BD00BFA499FF1F044A107806
:102410005378C0B2DBB2984238BF4030C01A704720
:10242000A499FF1F094A11785378DBB2994209D069
:102430000133402B28BF0023D118DBB291F82D00C7
:10244000537070474FF0FF30704700BFA499FF1FD3
:10245000084A11785378DBB2994208D00133402BF7
:1024600028BF0023134493F82D00C0B270474FF0EB
:10247000FF307047A499FF1F024B5A78D2B21A70EE
:10248000704700BFA499FF1F70B51E4803789B06D4
:1024900010D51D4B1D4A1C78137851780133402B01
:1024A00028BF00238B42E4B204D0D118DBB281F8FC
:1024B0002D40137016490C78E4B2260616D5037821
:1024C0001D0613D5114A9578D378DBB29D4202D10F
:1024D0006C230B700AE00133282B28BF0023D5188A
:1024E000DBB26E79084DF6B22E70D370620607D556
:1024F00003785B0604D5054B00221A712C230B7060
:1025000070BD00BF04B0064007B00640A499FF1F8D
:1025100003B00640F0B5304B1B681B06FBD42F4BB5
:102520001B6813F08002F6D172B62D4B1978002982
:1025300050D02C4908684F688E68CD680C693844C3
:10254000143130440968284420440844C0F34E0044
:10255000254940F400400860C86A0F6B4E6B8D6BD4
:10256000CC6B384440313044096828442044084446
:10257000C0F34E001D4940F40040086001F108110D
:10258000143151F8140C51F8107C51F80C6C51F8BE
:10259000085C51F8044C096838443044284420440D
:1025A0000844C0F34E00124940F400400860C86A75
:1025B0000F6B4E6B8D6BCC6B3844403130440968E7
:1025C000284420440844C0F34E000A4940F4004027
:1025D00008601A7062B6F0BD24B0034024B00B400E
:1025E000119AFF1F38B003402CB0034030B00340B5
:1025F0002CB00B4030B00B4030B5214B214D224860
:10260000224960221A70E1225A702C78204A03F580
:102610008E23082C03F10C0301D1012402E00A2CC3
:1026200003D139240460132005E00C2C0CBF3524A1
:102630003D240460122008601460164A1860537824
:1026400015491046154A03B101230B6013606978E0
:10265000134A144B012901D880210BE0042901D829
:10266000842107E0082901D8852103E0102994BFBF
:1026700086218721116019600123037030BD00BFDE
:10268000004007401D86FF1F08B003400CB0034008
:1026900008B00B40119AFF1F20B0034020B00B4040
:1026A00024B0034024B00B400D4B5A7858B1AAB95E
:1026B000012159701B7823B10A4B1A6003F50023DE
:1026C0001A60FFF799BF4AB158701B78002BF8D0F9
:1026D000044B186003F500231860F2E7704700BF51
:1026E000119AFF1F24B003400C2810B504D91028FC
:1026F00028BF1020102307E00A2804D8092834BF77
:1027000008230A2300E00C23DCB2094A0949201AF5
:1027100090700878834209D013780C7013B1064B7F
:1027200000221A60BDE81040FFF766BF10BD00BF71
:10273000119AFF1F1D86FF1F24B0034010B5114BD7
:102740001B7804460BB1FFF7E5FE012C0E4A01D8B9
:10275000002302E0042C02D8042313600EE0082CAE
:1027600003D805231360082308E0102C03D80623A0
:102770001360102302E0072313602023034A5370E1
:1027800010BD00BF119AFF1F24B003401D86FF1F1C
:102790000D2838B50FD9172801D80E380AE0A0F156
:1027A0001A03052B01D8093804E0A0F12203062BF7
:1027B00047D81838C0B2244B244C1D5C23780BB189
:1027C000FFF7A8FE290616D472B6214B1D6001231F
:1027D000E37062B672B61E4B1B681A0604D51D4B19
:1027E00018680023E37021E0E378002BEDD062B697
:1027F000FEF73CFAEEE772B6174B1A6815F0400F79
:1028000014BF22F0100242F010021A60134B05F0C0
:102810003F021A600123237162B672B60F4B1B6828
:102820001B0607D50E4B18680023237162B6A378E8
:10283000184138BD2379002BDED062B6FEF716FAB8
:10284000EBE7002038BD00BFFC1B0100119AFF1F01
:1028500000B0034010B003400CB00B4000B00B4080
:1028600010B00B40084B1A6842F480521A60074BB4
:102870005A78074B0AB1802200E0C0221A70054B3B
:1028800080F30C00188070472C800440119AFF1FC1
:1028900021C00C4000C00C4038B5124B1B78EBB186
:1028A000114C23681BB90220FEF7F6FB206020685C
:1028B0000D4D98B14388C218147A5CB10288013377
:1028C000934204D3FEF7F2F900232B6000E043802B
:1028D000204638BDFEF7EAF92C60DEE74FF0FF3006
:1028E00038BD00BF7498FF1F189AFF1F10B50D4B1D
:1028F0001B788BB10C4C23681BB90220FEF7CCFB74
:102900002060206840B1438803441C7A3CB9FEF73C
:10291000CDF9054B1C60EAE74FF0FF3010BD2046B3
:1029200010BD00BF7498FF1F189AFF1F38B5104DD7
:102930002B6823B128680024028843880FE00D4BE0
:102940001B781BB10220FEF7A7FB28602C68002C27
:10295000F0D10BE0C1182144097A19B10134E11812
:102960009142F7DB14B9FEF7A1F92C60204638BD7F
:10297000189AFF1F7498FF1F10B5094B1B786BB195
:10298000084C206818B1FEF791F90023236002205B
:10299000FEF782FB10B1FEF789F9F8E710BD00BF22
:1029A0007498FF1F189AFF1F2DE9F0412F4C012347
:1029B00006460D462371002D53D0A36863BB44F235
:1029C000D9572B4B1B7803F0FF020BB9227117E08C
:1029D0000120FEF791FB052802D9013F08D10BE049
:1029E00001232371FEF744F9A0600028F5D013E01D
:1029F000237BDFF878803BB101232373002323710D
:102A00004FF0FF30BDE8F08188F80430FEF72EF972
:102A1000012388F80430D4E7A1684888C0F1400257
:102A2000954238BF2A4600F108070023104423735B
:102A30000F444880AD1A934203D0F05CF854013340
:102A4000F9E71E444B883F2B02D805236373B2E796
:102A500040230B80002701206773FEF79FFBA760D0
:102A6000A9E725712846BDE8F08100BF189AFF1F2D
:102A70007498FF1F07B502AB012103F8010D18463A
:102A8000FFF792FF03B05DF804FB10B50C4B1B7809
:102A9000A3B10C4CA16889B14B887BB10022627351
:102AA0003F2B04DCCA18002010720133F8E74023E2
:102AB0000B800120FEF772FB0023A36010BD00BF56
:102AC0007498FF1F189AFF1F10B50A4C23797BB921
:102AD000A1684B883F2B04DCCA1800201072013318
:102AE000F8E740230B800120FEF758FB0023A3608A
:102AF00010BD00BF189AFF1F4B0803F1376000F5A7
:102B0000D830B0FBF1F0FDF7ADBC10B54B0803F1C8
:102B1000376000F5D8301446B0FBF1F0FDF7A2FCA9
:102B20002046BDE81040FDF7DFBCFDF70BBD0846B1
:102B3000FDF72EBDFDF7F0BDFDF710BEFDF7F8BDAA
:102B4000FDF7E0BDFDF71EBE08B50846FDF73AFDEE
:102B5000012008BD10B5084614461146FDF77EFD5C
:102B6000204610BD044B00221A714FF47A711A737B
:102B7000024A99601A607047289AFF1F201C0100C2
:102B80004B0803F1B76000F55840B0FBF1F0FDF7DA
:102B9000B7BE10B54B0803F1B76000F558401446B6
:102BA000B0FBF1F0FDF7ACFE2046BDE81040FDF7AC
:102BB000DFBEFDF70BBFFDF785BFFDF7A5BFFDF736
:102BC0008DBFFDF774BFFDF7B3BF08B50846FDF72D
:102BD00023FF012008BD10B5084614461146FDF735
:102BE0005BFF204610BDFFFF044B00221A714FF41B
:102BF0007A711A73024A99601A607047389AFF1FF7
:102C0000581C0100014B0360704700BF901C01007D
:102C10000369D3F84422B2F5817F09D8D3F844225E
:102C2000501CC3F844021344012083F83C11704740
:102C3000012303710020704730B50469D4F8443291
:102C4000B3F5817F1DD8D4F84432D4F84452C3F58B
:102C5000817301332C449A4204F59E7402D90122F7
:102C600002711A460023934203D0CD5CE554013330
:102C7000F9E70269D2F844121944C2F8441218461E
:102C800030BD01230371002030BD002210B5027158
:102C90000273064A02604FF47A74054A84604FF466
:102CA0001874417304FB0121016110BD901C0100E7
:102CB0002086FF1FF0B59DF814409DF818509DF830
:102CC000206029B94C4FD7F800C04CF0400C06E00A
:102CD000012906D1484FD7F800C04CF0800CC7F846
:102CE00000C0002780F84B7280F84822476932B94B
:102CF00020233B7003681A70C3691A7015E0002C1A
:102D00000CBF202228223A70076801D0A34201D2CA
:102D10005A0000E06200D2B23A70C26924B1A34204
:102D200034BF64005C00E4B214709DF81C3040F2C3
:102D30000362002B40F2646440F2032308BF4FF4A7
:102D4000197308BF224671B9012D05D12B4A80F8AD
:102D500049521360536018E0294A80F84912136001
:102D600042F8043C11E001290FD1032D06D1254B77
:102D700080F849521A6043F8042C06E0022280F8D9
:102D80004922214A13600432136043680A2E1BD87B
:102D9000DFE806F01A06080A0C0E101214161800C6
:102DA0001F2212E01D2210E085220EE014220CE00A
:102DB00045220AE00D2208E00B2206E0092204E089
:102DC000022202E0002200E027221A708369042216
:102DD0001A7090F8482283680AB9802200E0C02265
:102DE0001A7011B94FF0807203E0012903D14FF03E
:102DF0000072064B1A60F0BD3480044000A004400D
:102E00000CA0044004D0044028B0044000E100E0DD
:102E10002DE9F8431C46C3681B789B0607460E46FF
:102E200090465ED4002C40F2032540F2036340F24A
:102E3000646908BF4FF4197518BF994651BB012A40
:102E400012D1002C14BF022100211220FEF7CCFF6A
:102E5000002C4FF0130014BF02210021FEF7C4FF25
:102E600087F84982224B39E0002C14BF022100214F
:102E70001020FEF7B9FF002C4FF0110014BF022103
:102E80000021FEF7B1FF1B4B87F849621D6043F834
:102E9000045C29E0012927D1002C14BF022400245E
:102EA000032A0FD11D202146FEF79EFF1E2021463A
:102EB000FEF79AFF104B87F84982C3F8009043F859
:102EC000049C11E01A202146FEF78EFF1F202146A8
:102ED000FEF78AFF022387F84932084B1D605D60C8
:102EE00002E00020BDE8F8830120BDE8F88300BFC0
:102EF00000A004400CA0044004D0044028B00440CA
:102F00000369490083F83C1103690122C3F8442294
:102F10000022027183F84B227047D0F8443230B55A
:102F200033B3C36812221A7083681A78920601D5E7
:102F3000B4220AE0C5682A7802F0200202F0FF04F9
:102F4000002AF8D180F84842B0221A70012380F894
:102F50004B320023C0F84032836880F84A12F022D6
:102F60001A70D0F840220369104490F83C211A707E
:102F700030BD70B54AB3C0F850220022C0F83421E9
:102F8000C0F83821C2681224147082681478A4062C
:102F900001D5B4240AE0C668347804F0200404F0B3
:102FA000FF05002CF8D180F84852B024147080F846
:102FB0004A320222836880F84B22F0221A704900BC
:102FC00041F001010369C9B2197070BD036993F83A
:102FD0004B32043B032B07D8DFE803F004020B0459
:102FE00002207047042070470079003018BF01208C
:102FF00070470320704790F84B326BB190F84B321A
:10300000052B09D090F84B32062B05D090F84B02D7
:10301000C31F5842584170470120704770B504469D
:103020000D46FFF757F806462046FFF7E4FF30B994
:10303000002DF9D0FFF74EF8801BA842F4D394F886
:103040004B32012B13D094F84B32022B0FD094F853
:103050004B32032B0BD04FF4A073013B7FF4FDAF39
:1030600094F84B02D0F1010038BF002070BD04235A
:1030700084F84B32EFE738B5044615460069FFF790
:103080004CFF20692946FFF7C9FF2046BDE83840BC
:10309000FFF79CBF10B504460AB9002010BDFFF72A
:1030A00068FF20460299FFF7B9FF0028F5D0D4F851
:1030B000380110BDD0F83421D0F838319A4208D206
:1030C000D0F834315A1CC0F83421184490F830003C
:1030D00070474FF0FF307047D0F83421D0F83831C6
:1030E0009A423DBFD0F83431C01890F830004FF00C
:1030F000FF307047D0F83421D0F838319A4208D2E6
:10310000D0F834315A1CC0F83421184490F83000FB
:10311000704700207047D0F83421D0F838319A42F7
:103120003DBFD0F83431C01890F83000002070470F
:1031300038B5C16883680D781A78D2B20446900613
:10314000EDB26ED5D00648D594F84B22012A1BD19A
:1031500015F00105D4F8402205D02AB3062284F8E0
:103160004B228022D8E00132C4F84022D4F8441225
:103170008A4202D384F84B5229E0D4F840222369D2
:10318000224492F83C21C7E094F84B22022A1AD13B
:10319000E90607D5072284F84B2280221A70E368DB
:1031A0001222EDE0EA0701D50522D8E7032284F8D0
:1031B0004B22D4F85022012A0CBFE822E0221A70D8
:1031C00023691B78DAE094F84B22042AC9D194F8D9
:1031D0004A22012AC5D0B0229EE0D4F83811D4F892
:1031E00050220231914200F0CD8094F84B22042A03
:1031F00004D194F85522002A00F0C480D4F8382174
:10320000D4F8503201329A4280F0BF8094F84B32A9
:10321000042B40F0E48094F85532002B40F0B58048
:10322000DDE015F0100F05F0400304D01020087009
:10323000002B00F0A38003F0FF01002B52D094F884
:103240004B32092B04D1D4F85832002B40F0E280E5
:1032500005F0040505F0FF03EDB1082384F84B32B7
:103260000023C4F84432D4F85C3203B19847D4F850
:1032700044320BB984F83C31A368D0221A70236918
:103280001A78520884F84C2294F83C211A700123D1
:10329000C4F8403272E094F8492284F854320AB9F2
:1032A000122002E0012A02D111205E4903E0022A25
:1032B00003D15D491E20032203E0032A03D15A49AA
:1032C0001F20FEF76DFB092384F84B320023C4F85E
:1032D0003831A368C0221A7023691B785B0884F810
:1032E0004C324BE002F0100202F0FF03F2B115F095
:1032F000010513D1D4F84022D4F844329A4207D2BF
:10330000D4F840325A1C2344C4F8402293F83C516C
:1033100023691D70A368D0221A702FE0A368C02211
:103320001A7023691B7884F84B1227E094F849221D
:1033300084F854320AB9122002E0012A02D1112085
:10334000384903E0022A03D137491E20032203E053
:10335000032A03D134491F20FEF722FB23691A7880
:10336000D4F83831B3F5817FD2B207D8D4F83831E8
:10337000591C2344C4F8381183F83020E368022232
:103380001A7038BDE8221A7038E794F84B220023EF
:10339000042A84F8553201D084F84B32A368B02255
:1033A0001A7023691A78D4F83831B3F5817FD2B214
:1033B00007D8D4F83831591C2344C4F8381183F89D
:1033C000302094F84A32012B06D12023013B7FF4B0
:1033D000FDAFA36880221A7094F84B320EE0236987
:1033E0001A78D4F83831B3F5817F07D8D4F838315A
:1033F000591C2344C4F8381183F8302094F84B3218
:10340000042BBBD194F85532002BB7D1012384F89B
:103410005532B3E70022C4F83421D4F83801984774
:1034200016E700BFD7340000E53400000148002152
:10343000FFF77EBE2086FF1F01480121FFF778BEFF
:103440008088FF1F10B5C3681B7803F02003044673
:1034500003F0FF02EBB990F8493280F84B220BB928
:1034600012200AE0012B01D1112006E0022B01D12C
:103470001E2002E0032B02D11F20FEF7BBFAD4F876
:1034800058323BB30022C4F83421D4F838019847AD
:1034900010BD90F854320133DBB2012B80F8543266
:1034A00004D890F84832012B00D110BD94F849326D
:1034B0000BB912200AE0012B08BF112006D0022B05
:1034C00008BF1E2002D0032B04D11F20BDE81040EE
:1034D000FEF790BA10BD02480021FFF7B3BF00BF4E
:1034E0002086FF1F01480121FFF7ACBF8088FF1F26
:1034F0000369D3F83801D3F83431C01A70477047E4
:103500000069FFF7D7BD0069FFF7E6BD70B50C4C49
:103510000C4E0D4D20460021FFF7B7FB2A463146E1
:103520002046143407F09CFE20460121FFF7ADFB36
:10353000204631462A46BDE8704007F091BE00BFE4
:10354000489AFF1F052C00002085FF1F2DE9F04140
:10355000837A457AFF2B04460E46174603D0C27A7B
:10356000002A18BF1D46237AFF2B05D14FF42053A4
:10357000013B7FF4FDAF42E0A07C0021FEF734FC6C
:10358000E07C0021FEF730FC207D0021FEF72CFCC2
:10359000607D0021FEF728FC207A0121FEF7F6FB72
:1035A000E0790021FEF7F2FB01212846FEF7EEFB51
:1035B000607DFEF70BFC002180462846FEF7E6FB07
:1035C00028460121FEF7E2FB28460021FEF7DEFB3C
:1035D000B8F1010FE8D0A07C0121FEF705FCE07CEA
:1035E0000121FEF701FC207D0121FEF7FDFB607D3E
:1035F0000121FEF7F9FB207A0021FEF7C7FBE079F5
:103600003946FEF7C3FBA07C06F01001FEF7BEFBB7
:10361000E07C06F02001FEF7B9FB207D06F04001BA
:10362000FEF7B4FB607D06F08001FEF7AFFB284695
:103630000121FEF7ABFB28460021FEF7A7FBA07C8B
:1036400006F00101FEF7A2FBE07C06F00201FEF7A6
:103650009DFB207D06F00401FEF798FB607D06F0DF
:103660000801FEF793FB28460121FEF78FFB284651
:103670000021BDE8F041FEF789BB08B5017F01F0EC
:10368000FD01017741F0080100F08AFA08BD08B594
:10369000017F41F00202027741F00A0100F080FA56
:1036A00008BD08B5017F01F0FE01017741F0080176
:1036B00000F076FA08BD08B5017F41F001020277FB
:1036C00041F0090100F06CFA08BD70B5C37D41738B
:1036D0009A4284BF03F1FF32D2B20023C37383182E
:1036E00004461D7E8273007B05F04006084405F009
:1036F0003F052844C0B2C3B25DB2272DF6B202DD49
:10370000A0F1280303E0002D02DA00F12803DBB268
:103710001E4302F00202E37AD5B2AB4202D0204649
:10372000FFF7ABFFE572204646F0800100F038FA63
:1037300070BD10B5837AFF2B044617D00223C372E5
:10374000012100F02DFA0023E3722046012100F050
:1037500027FA237AFF2B03D10B4B013B7FF4FDAFFC
:10376000002120460A46FFF7B0FF09E0012100F0E2
:1037700017FA237AFF2B03D1034B013B7FF4FDAFF4
:103780000023237310BD00BF806A01002DE9F041C2
:10379000837A01F00701FF2B044616464FEAC10168
:1037A0000ED141F0400100F0FBF90025715D20468B
:1037B00001220135FFF7CAFE082DF7D1BDE8F081DF
:1037C000002541F0400790F80B80C572394600F0A3
:1037D000E7F9715D204601220135FFF7B7FE082D9C
:1037E000F7D10223E3722046394600F0D9F90025CB
:1037F000715D204601220135FFF7A8FE082DF7D1A3
:1038000084F80B80BDE8F081F8B5837AFF2B04467D
:103810000F4604D10022BDE8F840FFF797BE00250F
:10382000C67AC5722A46FFF791FE0223E37220464C
:1038300039462A46FFF78AFEE672F8BD10B50446FF
:103840000221FFF7E1FF237AFF2B03D1074B013B56
:103850007FF4FDAFA37A0021FF2B217305D0204612
:103860000A46BDE81040FFF730BF10BD806A010076
:10387000017F01F0FB01017741F00801FFF7C4BFB0
:10388000017F41F00402027741F00C01FFF7BCBF59
:1038900010B504461821FFF7B7FF237B5A1CD2B29C
:1038A00051B22729CABF273B2273237310BD10B51D
:1038B00004461C21FFF7A8FF237B5A1ED2B251B247
:1038C0002731B6BF27332273237310BD417F41F0E8
:1038D000020242770022027441F00601FFF794BF12
:1038E000417F012201F0FD014177027441F00401A2
:1038F000FFF78ABF417F41F00102427741F00501A5
:10390000FFF782BF417F01F0FE01417741F00401E2
:10391000FFF77ABF38B5C36823F47F0323F47F43EE
:1039200004460D461BB1417B827BFFF7CEFE0D2D79
:1039300006D00A2D04D0204629460122FFF706FEB4
:10394000227C0023E373637B52B90133DBB20D2D7C
:10395000637303D0A27D5BB2934210DB002308E0C7
:10396000013BDBB20A2D637301D01B0607D5A37D93
:10397000013B6373A37B0133A3730123E373E37DF3
:1039800094F90E209A42A4BF0023A37338BD38B522
:1039900004460D46807C01F00101FEF7F7F9C5F3FE
:1039A0004001E07CFEF7F2F9C5F38001207DFEF7CF
:1039B000EDF9C5F3C001607DFEF7E8F9A37A657AF9
:1039C000FF2B03D0E27A002A18BF1D4628460121AA
:1039D000FEF7DCF928460021BDE83840FEF7D6B9ED
:1039E000012A70B504468CBF0826002623B1012A9F
:1039F00004BF46F00406F6B21225254B013B7FF4C6
:103A0000FDAF013D15F0FF05F7D1E0792946FEF73E
:103A1000BDF99DF810002946FEF7B8F9E07929466E
:103A2000FEF7B4F920460321FFF7B1FF194B013B24
:103A30007FF4FDAF032120464FF49655FFF7A7FF13
:103A40002B46013B7FF4FDAF03212046FFF79FFF8C
:103A50002B46013B7FF4FDAF02212046FFF797FF85
:103A6000013D7FF4FDAF46F02001204600F098F8BC
:103A7000042323772046FFF703FF2046FFF759FE74
:103A8000022363772046062100F08AF870BD00BF4C
:103A900080A9030000710200F7B590F818E0044611
:103AA0008E44E2756271A175A17180F81AE090F8F8
:103AB00019E08E4480F81BE090F809E0CDF800E0B2
:103AC00016460D461F46FFF78BFFA27AFF2A0CD041
:103AD0000023A3764023E3760223E372009220467C
:103AE000294632463B46FFF77BFF03B0F0BD2DE988
:103AF000F047044600259DF824009DF828A09DF875
:103B00002C909DF830809DF8207063721646FF223D
:103B10002272E171A0740121A772E57225736573A9
:103B2000A573E573257484F813A084F8149084F8C1
:103B30001580FEF759F950460121FEF755F9484620
:103B40000121FEF751F940460121FEF74DF94023CE
:103B500063761423A37654232576E376E079012156
:103B6000FEF742F9FF2E07D030460121FEF73CF95F
:103B700030462946FEF70AF9607A0121FEF734F94A
:103B8000FF2F03D038460121FEF72EF920461421DD
:103B900001220023FFF780FF2672BDE8F08700BFF7
:103BA0000022FFF7D3BCFEF7C1BEFEF775BEFEF7DD
:103BB0009DBEFEF76ABF0846FEF75CBF0846114689
:103BC000FEF7F2BE044B00221A714FF47A711A7399
:103BD000024A99601A607047709AFF1FC01C01006A
:103BE000094B1F2928BF1F214FF0FF3218601971A0
:103BF0009A6000238B4206D04FF4817202FB0302CD
:103C000053700133F6E77047849AFF1F30B572B6E0
:103C1000104B9A681879B2FA82F1814202D362B6E7
:103C2000002030BD4FF00040C84022EA00029A60F8
:103C30001A7B0132D2B21A7362B64FF481704143DB
:103C40001C68012565546018597B914238BF5A732E
:103C500030BD00BF849AFF1F427872B60378012BF3
:103C600002D9013B037009E0054B4FF00041D14000
:103C70009A680A439A601A7B013A1A7362B67047CF
:103C8000849AFF1F30B5C3687BB1187A90420AD17D
:103C900058685C7A006950F8245025B940F824101F
:103CA000087801300870DB68EEE730BD437A99424E
:103CB00038BF02694FF000033ABF52F8210042F8C2
:103CC00021301846704738B5437A994201D3002015
:103CD00038BD036953F82140002243F82120002C0D
:103CE000F5D02378012B0ED9FFF790FF054628B1B8
:103CF0000230A11C4FF4807207F0A4FD2378013B31
:103D00002370284638BD204638BD10B54168427A38
:103D10004B7A9A420ED872B60268D3680BB9D0605B
:103D200004E0DC680CB12346FBE7D8600123137282
:103D30000B7262B610BD084B9A7B52B9074AFF213D
:103D40001170A2F256324FF0804101201160987339
:103D500070470020704700BF849AFF1F5EE400E0B8
:103D6000034B4FF080421A60024B00229A73704757
:103D700088E100E0849AFF1F184B1A6842F08072B5
:103D80002DE9F0411A60164B164D1A68164E42F096
:103D900001021A602F6834699CB1237A7BB12368D1
:103DA000D5F800801B68204698472968E288C8EB50
:103DB000010109098BB29142A38088BFE380646945
:103DC000EAE72A68F18AD21B12098A4293B288BFB5
:103DD000054AB38288BFD382BDE8F081FCED00E0E4
:103DE000001000E0041000E0849AFF1FFFFFFFFFB7
:103DF000F8B506460C468F180025BC4207D033683C
:103E000014F8011B1B68304698470544F5E728461F
:103E1000F8BD2DE9F04100258C688AB00746884638
:103E20002E4694B12B46404601A9212201F04FF8BD
:103E30003B68202C34BF224620225B68384601A90B
:103E40001544A41A98470644EBE730460AB0BDE88B
:103E5000F08107B5054B1B88ADF80430036801A954
:103E60005B680222984703B05DF804FBD81C010090
:103E700008B503685B689847002008BD0EB403B519
:103E800003AA52F8041B01920BF04EF802B05DF841
:103E900004EB03B070470EB403B503AA52F8041B39
:103EA00001920BF041F802B05DF804EB03B07047EB
:103EB00070B505468AB022B90368C9B21B68984735
:103EC0002CE0012A08BF0A2221B930228DF82520D2
:103ED000212413E02124B1FBF2F002FB1011C9B23E
:103EE00009290AAE94BF303137312644C9B206F8E9
:103EF000241C014610B1013CE4B2ECE733B1013CB3
:103F0000E4B20AAB23442D2203F8242C2B6801A928
:103F10005B6828462144C4F1220298470AB070BD6C
:103F20000029BABF49422D2300230A22FFF7C0BF50
:103F30002DE9F347804614461D46104619460022D7
:103F400000239DF8289007F0CBF820B105F1004739
:103F50003D46012600E00646334B00270022F9B219
:103F600049450AD2104619462DA3D3E9002306F08D
:103F700045FE013702460B46F1E72046294606F08A
:103F80008BFC0D46044607F0FBF8074633464046D7
:103F900039460A22FFF78CFF0646B9F1000F3BD0E5
:103FA000384606F0B5FDB9F1070F28BF4FF00709F5
:103FB0000B4602462946204606F06CFC09F1010931
:103FC0002E238DF800305FFA89F94FF0010A0022A4
:103FD000164B06F013FE0D46044607F0D1F802AB6F
:103FE0005344C0B200F1300203F8082C06F0A0FDE3
:103FF0000AF1010702460B46FFB22046294606F0A9
:1040000049FC4F4501D0BA46E1E7D8F800304046B8
:104010005B6869464A469847304602B0BDE8F0877B
:104020009A9999999999B93F0000E03F000024407E
:1040300038B5054CA4F538752046103C00F05CFC02
:10404000AC42F9D138BD00BF6C9DFF1F38B51B4C89
:1040500094F8E03223B994F8E132DB4384F8E1329A
:10406000164B94F81C2394F8E21203EB420311B1AF
:10407000B3F8E41201E0B3F81E1394F81C330F4DAB
:1040800001F5E041C1F30B1101332820890884F8C0
:104090001C33FDF7C5FE94F81C331B2B0CD90023F1
:1040A00085F8563385F81C33012385F8E03295F8FE
:1040B000E232DB4385F8E23238BD00BF9C9AFF1F35
:1040C00038B5124D05F556742046FFF732FB012234
:1040D00020460021FFF7F9FAB5F97813204605EBE1
:1040E0000111FFF796FEB5F97A1320468911FFF703
:1040F00017FF2046064900F077F8B5F97C132046F3
:104100000911BDE83840FFF70BBF00BF9C9AFF1FA5
:10411000F01C010038B52C482C4C01F0DDF828B912
:1041200004F5647001F0D8F800B938BD274DFFF7E9
:10413000C7FF05F5647001F0F8F880B1012385F838
:104140007434234BB3F82C22A3F82822B3F81C2292
:10415000A3F82A220022C3F82422C3F830221D48E3
:1041600001F0DAF870B11A4BB3F82012A3F82A1252
:1041700000220221A3F82C22A3F82822C3F824123B
:10418000C3F83022114D05F5607001F0CEF8D0B1C2
:10419000B5F8783301331BB22B2B44F2EC52DABF63
:1041A00023EAE3739BB22C23A15CA4F87833DBB23F
:1041B000994203D00549012081F87404A354BDE855
:1041C0003840FFF77DBF38BD1C9EFF1F9C9AFF1F24
:1041D0007CDEFF1F2C9EFF1F7047704710B5044602
:1041E00001F0C4F9204610BD38B5044608460D4616
:1041F000FCF7ECFC236802465B682046294698479A
:1042000038BD70B54FF4F053002501264CF2010281
:104210000446A0F86C20A0F86E30A0F88C20A0F81E
:104220008E30A0F8AC20A0F8AE308565C66580F869
:104230006450A0F86850A0F86650A0F86A5005676E
:104240008567C66780F88450A0F88850A0F886502B
:10425000A0F88A50C0F89050C0F89850C0F89C6000
:1042600080F8A450A0F8A850A0F8A650A0F8AA5032
:10427000C0F8B050C422D830294607F0DDFB40F624
:10428000FD734FF48452C4F8A031C4F8B431C4F8BB
:10429000C831C4F8DC314FF48043C4F89C51C4F8F1
:1042A000A451C4F8A851C4F8B051C4F8B851C4F826
:1042B000BC51C4F8C451C4F8CC51C4F8D051C4F8AE
:1042C000D851C4F8E051C4F8E451C4F80052C4F81D
:1042D0000452A4F8EE21A4F8F03184F8EC61C4F89B
:1042E000F45184F80862C4F82052C4F82452A4F8A7
:1042F0000E22A4F8103284F80C62C4F8145284F828
:104300002862C4F84052C4F84452A4F82E22A4F8FB
:10431000303284F82C62C4F8345284F84862C4F80D
:10432000B85084F8D46084F8D3606565A580E580D2
:1043300070BDFFFF70B5834C834D00261320022112
:1043400084F83462FDF750FD14200221FDF74CFD86
:1043500031461C2205F21E3007F06EFB1C2231464E
:1043600005F5397007F068FB05F5687085F8566348
:10437000FFF747FF4FF6FF73A4F81C3244F2EC53EB
:10438000A4F81E62EA5CA4F82062C4F8186212B1B4
:10439000012285F874244FF4FA7200266B496C48A8
:1043A000EE54A5F8A063A5F8A26301F0C9F80D20AA
:1043B0000121FDF719FD01211720FDF715FD0C2046
:1043C000FDF794FC4FF4B0530222A4F84C3261483C
:1043D00033461021FFF760FB5F495E48FFF704FF9B
:1043E0004FF4FA70FDF796FE5A48FFF7A2F9FFF76F
:1043F00091FE544E594B042200211A6006F24E20C1
:104400001C2207F019FBB4F84C32B4F86A220E20D3
:1044100093421CBFA5F8A833A6F86A32FEF7B8F994
:104420000001A5F87C030F20FEF7B2F90001A5F802
:104430007A031120FEF7ACF90001A5F8A8031020BB
:10444000FEF7A6F9000180B2454BA4F86C0200B259
:10445000596853F82030C4F81432D4F82432C4F820
:10446000101204EB8301D4F83002D1F81012354A4F
:1044700008448842C4F830021AD20133B2F82A1232
:10448000DBB2022B1ABFC1EB014109140021A2F8D3
:104490002C12B4F82C22A4F8282204EB4302C4F80E
:1044A0002432B2F81C22A4F82A220023C4F83032A5
:1044B000D4F82422234B04EB8202D2F81022E2B17A
:1044C000D3F83002274E010EC0F30F2036F811202A
:1044D000023636F81110B3F82A62891A414302EB0A
:1044E000114189B2C1F57F42B3F82802FF3271430E
:1044F00002FB00121214A3F82C22B5F87A33A5F8A7
:10450000A23395F8E232B5F87C23A5F8A02316482B
:10451000164913B1A0F1820201E0A0F1BC021C23F4
:1045200002F04AF9124B04221A60012385F856332F
:1045300095F8563303F0FF02002BF9D1024B83F8B4
:10454000E02254E77CDEFF1F9C9AFF1F4D400000D5
:10455000B4E0FF1FF49DFF1FF31C010084F00F4027
:1045600064D901006EE001003C9EFF1FCAE0FF1FFE
:1045700088F00F40F0B5934C9349944D87B0204696
:1045800000F0FAF904F11000914900F0F5F904F196
:104590002000904900F0F0F904F130008E4900F05D
:1045A000EBF904F140008D4900F0E6F904F1500008
:1045B0008B4900F0E1F904F160008A4900F0DCF970
:1045C00004F17000884900F0D7F904F180008749B0
:1045D00000F0D2F904F19000854900F0CDF904F122
:1045E000A000844900F0C8F904F1B000824900F04D
:1045F000C3F904F1C000814900F0BEF904F1D00014
:104600007F4900F0B9F904F1E0007E4900F0B4F907
:1046100004F1F0007C4900F0AFF904F580707B49AB
:1046200000F0AAF904F58870794900F0A5F904F5BD
:104630009070784900F0A0F904F59870764900F080
:104640009BF904F5A070754900F096F904F5A8707F
:10465000734900F091F904F5B070724900F08CF9DB
:1046600004F5B870704900F087F904F5C0706F491F
:1046700000F082F904F5C8706D4900F07DF904F589
:10468000D0706C4900F078F904F5D8706A4900F0F0
:1046900073F904F5E070694900F06EF904F5E8700B
:1046A000674900F069F904F5F070664900F064F9B3
:1046B00004F5F870644900F05FF904F5007063498F
:1046C00000F05AF904F50470614900F055F904F559
:1046D0000870604900F050F904F50C705E4900F074
:1046E0004BF904F510705D4900F046F904F51470BB
:1046F0005B4900F041F904F518705A4900F03CF9A3
:1047000004F51C70584900F037F904F5207057493A
:1047100000F032F904F52470554900F02DF904F544
:104720002870544900F028F904F52C70524900F023
:1047300023F904F53070514900F01EF904F5347086
:104740004F4900F019F92A464E49002006F088FD2D
:104750004D4BC4F858330A260027FF20092384F85C
:104760005C738DE849000B2303930C23049304F539
:104770005670052304210622FFF7B9F9324604F5E5
:104780006070132100F05CFD324604F56470142162
:1047900000F056FD04F568703C4C3D492A4606F091
:1047A0005FFD2A4604F504703A4906F059FD3A497E
:1047B00084F8387204F50E702A4607B0BDE8F04060
:1047C00006F04EBD9C9AFF1FFF1C01002085FF1FB5
:1047D000041D01000A1D0100151D0100231D01001B
:1047E000281D0100341D01003D1D0100481D010070
:1047F000561D0100661D0100721D0100821D010091
:104800008C1D0100951D0100991D0100AB1D0100CB
:10481000BD1D0100CF1D0100E11D0100E71D0100CC
:10482000ED1D0100F71D0100121E0100091E01000F
:10483000011E0100151E01001D1E0100231E0100A6
:10484000291E0100301E01003C1E0100481E01000F
:104850004D1E0100541E01005A1E0100651E01007C
:104860006E1E0100781E0100881E0100971E0100C7
:10487000A81E0100B61E0100C51E0100D41E0100C5
:10488000E71E010031400000B01C01007CDEFF1F6C
:10489000D9410000DB410000DD410000034804492C
:1048A000044A002300F8083F06F0DABC04E1FF1FC9
:1048B000DD4100002085FF1F002210B5026042602C
:1048C0000C68826004604C6844608C680273846089
:1048D0000A604A608A6010BD002210B50260426022
:1048E0000C68826004604C6844608C680273846069
:1048F0000A604A608A6010BD10B50446006806F080
:10490000FDFC204610BD38B504460D460068013157
:1049100007F0E0F810B184E82100012038BD4368B9
:104920008B4210B5044606D2FFF7EDFF20B1A36815
:104930000BB922681370012010BDF8B504460F466C
:10494000154622B9036803B11A7000230BE0114623
:10495000FFF7E5FF064640B9206810B106F0CEFC2F
:10496000266000236360A36004E0A56020683946E8
:1049700007F05EFC2046F8BD38B50023044603600E
:104980004360836003730D4639B10846FCF71EF996
:10499000294602462046FFF7D0FF204638BD10B515
:1049A00000230446036043608360037300F03AFC15
:1049B000204610BD38B5054600680C4660B16A68EF
:1049C0008B689A4206D3096807F032FCA368AB6093
:1049D00000230AE006F092FC23682B6063686B609A
:1049E000A368AB60002323606360A36038BD81428D
:1049F0000B4603D009689A68FFF79FBF704710B550
:104A0000002304460360436083600373FFF7EFFFF6
:104A1000204610BD884210B5044601D0FFF7CAFFFA
:104A2000204610BD884210B5044601D0FFF7C2FFF2
:104A3000204610BD38B505460C4641B10846FCF786
:104A4000C5F8214602462846FFF777FF00E0A96037
:104A5000284638BD13B500230446036043608360D5
:104A600003730A22084601A9FCF7B7F8204601A9FA
:104A7000FFF7E0FF204602B010BD10B5002386B05E
:104A800004460360436083600373084601A9FCF792
:104A9000C2F8204601A9FFF7CDFF204606B010BDA1
:104AA00010B5002386B0044603604360836003733F
:104AB000084601A9FCF791F8204601A9FFF7BAFFC3
:104AC000204606B010BD10B500238AB0044603602E
:104AD000436083600373084601A9FCF79CF82046F5
:104AE00001A9FFF7A7FF20460AB010BD10B50023AB
:104AF0008AB004460360436083600373084601A9DB
:104B0000FCF76BF8204601A9FFF794FF20460AB096
:104B100010BD10B500238AB0044603604360836073
:104B200003736B460846911CFCF785F80146204646
:104B3000FFF780FF20460AB010BD10B5044600F014
:104B400071FB204610BD07B500238DF8041001222B
:104B500001A98DF80530FFF7F0FE03B05DF804FB06
:104B600010B5002304460360436083600373FFF7BE
:104B7000EAFF204610BD70B504460E4685685AB15E
:104B800015442946FFF7CBFE30B12068A3683146B3
:104B9000184407F04DFBA560204670BD0B46096820
:104BA0009A68FFF7E8BF38B505460C4639B10846A4
:104BB000FCF70CF8214602462846FFF7DCFF2846A2
:104BC00038BD13B500238DF80410012201A9044655
:104BD0008DF80530FFF7CFFF204602B010BD1FB59E
:104BE00004460A22084601A9FCF715F801A8FBF7BC
:104BF000EDFF01A902462046FFF7BDFF204604B0A5
:104C000010BD1FB504460A22084601A9FBF7E5FFBF
:104C100001A8FBF7DBFF01A902462046FFF7ABFF27
:104C2000204604B010BD1FB504460A22084601A95B
:104C3000FBF7F1FF01A8FBF7C9FF01A902462046D7
:104C4000FFF799FF204604B010BD1FB504460A22A5
:104C5000084601A9FBF7C1FF01A8FBF7B7FF01A9AF
:104C600002462046FFF787FF204604B010BD10B56E
:104C700088B004466B46022208460421FBF7DBFF9E
:104C80006846FBF7A3FF694602462046FFF773FF1D
:104C9000204608B010BD10B50B46044609689A6856
:104CA000FFF769FF204610BD38B505460C4639B1FF
:104CB0000846FBF78BFF214602462846FFF75BFFBD
:104CC000284638BD38B5044608460D46FBF77EFF3A
:104CD000294602462046FFF74EFF204638BD10B554
:104CE0000446FFF76EFF204610BD10B50446FFF7DF
:104CF00076FF204610BD10B50446FFF794FF20460E
:104D000010BD10B50446FFF7A0FF204610BD10B53A
:104D10000446FFF788FF204610BD10B50446FFF794
:104D200094FF204610BD10B50446FFF7A0FF2046B3
:104D300010BD10B519460446104606F041FA01466A
:104D40002046FFF794FF204610BD03680A680BB1A8
:104D50005AB905E022B1896811B110784042704714
:104D60003BB1806830B1187870471846114607F09B
:104D700051B91846704708B582688B689A4206D1C7
:104D8000FFF7E3FFD0F1010038BF002008BD00208D
:104D900008BD826808B50B4612B919B9012008BDD3
:104DA00011B90368187802E0006807F033F9D0F110
:104DB000010038BF002008BD08B5FFF7C6FFC00FCF
:104DC00008BD08B5FFF7C1FF0028D4BF00200120AF
:104DD00008BD08B5FFF7B9FF0028CCBF00200120AF
:104DE00008BD08B5FFF7B1FFC043C00F08BD88423A
:104DF000F8B514D083688A68934212D17BB10668F3
:104E00000D680024305D50B10AF050F80746285D67
:104E10000AF04CF8874204F10104F3D001E00120CC
:104E2000F8BD0020F8BD10B58B688468E41AA24272
:104E30000CD8006868B1096851B110441A4607F0EF
:104E400055FAD0F1010038BF002010BD002010BD80
:104E5000084610BD82688B689A4202D30022FFF791
:104E6000E2BF0020704708B582688B689A420CD375
:104E7000006868B1096851B1D31A184407F0CAF83C
:104E8000D0F1010038BF002008BD002008BD084651
:104E900008BD836899423CBF03685A5470478368D1
:104EA000994201D2006818B9024800230370704784
:104EB0000844704724E1FF1F8368994203D20068C9
:104EC00010B1405C704700207047FFF7F5BF38B560
:104ED0000C469AB191B181688B4202D300232370B2
:104EE00038BDC91A551E8D4228BF0D4601682A4695
:104EF0001944204607F054FA0023635538BD8368EF
:104F00009A4210B506D20468A01807F009F808B153
:104F1000001B10BD4FF0FF3010BD0022FFF7EFBFA8
:104F200083689A4210B507D204680968A01807F090
:104F3000D1FB08B1001B10BD4FF0FF3010BD0022A7
:104F4000FFF7EEBFF8B583689A42044602D34FF0EC
:104F5000FF30F8BD0368551C00225F5D5A55066896
:104F6000304607F04FFA77550028F0D02368C01A72
:104F7000F8BD8268013AFFF7E5BFF8B515468A68C3
:104F80000F46C2B18368B3B19A4214D806689D42F5
:104F900028BF03F1FF3530464FF0FF3473199842B4
:104FA0000CD8396807F096FB40B1831BAB4298BF21
:104FB0001C460130F2E74FF0FF30F8BD2046F8BD47
:104FC00082688B68D21AFFF7D8BF9A42F8B50446B8
:104FD0000D4602D911461A460B460020A060AE6865
:104FE0002060B242606020730CD8B34238BF1E46C6
:104FF0002B689F5D9855296820461144FFF71AFDDC
:105000002B689F552046F8BD10B58B680446FFF706
:10501000DCFF204610BD036810B53BB113F8014B0F
:1050200024B18C4208BF03F8012CF7E710BD2DE92D
:10503000F74FD0F808A004460F461646BAF1000F05
:1050400075D0D1F808B0BBF1000F70D09368056837
:10505000CBEB0308B8F1000F0DD12846396807F0F3
:1050600039FB0546002862D03168B26806F0EAFBD9
:10507000B3681D44F1E702DB0B68D14620E0A94686
:105080002846396807F026FB8246A0B1C5EB0A0B1B
:10509000294648465A46D94406F0D4FB484631686A
:1050A000B26806F0CFFBB368BD689944A368434477
:1050B0005544A360E4E74846294607F0B9F836E0CE
:1050C00019462846019307F005FB019B18B100EB38
:1050D0000B05C144F4E7D14529D06368994504D94B
:1050E00020464946FFF70FFC08B3A268013A002AA0
:1050F0001DDB20463946FFF740FF051E17DBBA6867
:105100002168A3682A44114401EB08009A1A06F0AA
:1051100033FCA368226843440021A360D154206873
:10512000B2683168284406F08DFB6A1EDFE720462E
:1051300003B0BDE8F08F8368994203D203688160B1
:1051400000225A54704738B50B4681688B4204469A
:1051500012D28AB19818884288BFC3EB01028D1A17
:105160002168A5601A44C8181144EA1A06F004FC24
:105170002268A3680021D154204638BD38B50468A0
:1051800005463CB114F8010B20B109F08FFE04F87C
:10519000010CF7E7284638BD38B5046805463CB130
:1051A00014F8010B20B109F08DFE04F8010CF7E7AB
:1051B000284638BD2DE9F0410668044616B38768D5
:1051C00007B3B046454608F10108287806F084F890
:1051D0000028F7D1013F3744387806F07DF848B908
:1051E00001377A1BB542A26008D93046294606F03D
:1051F00029FB03E0AF42F3D3013FEDE72268A36848
:105200000021D1542046BDE8F081006808B106F0C5
:105210002DB87047006810B1002108F01DBB0020B8
:10522000704700BF38B5054608460C46FBF7CEFC74
:10523000214602462846BDE83840FFF77EBBFFFF07
:1052400037B500238360084B42601B680193019BC4
:105250000360044608460D46FCF7B8FD207320465F
:10526000657303B030BD00BFA099FF1FC9B20173C1
:10527000407BFCF78BBD00234160836070478160F9
:105280007047044B00681B6882B00193019B181A99
:1052900002B07047A099FF1F007B704713B504460A
:1052A000407BFCF793FD237B834201D100200EE07D
:1052B000084B1A68009200992268891A6268914224
:1052C000F4D31B680193019B20732360012002B07B
:1052D00010BD00BFA099FF1F37B50446FFF7DEFFE2
:1052E00010B10023A3600EE0A2687AB1094B1968DF
:1052F0000091009D2168691A914207D31B680193B0
:10530000019B2360A0600120A07301E00023A37330
:1053100003B030BDA099FF1F837B23B1007B003019
:1053200018BF0120704718467047837B2BB1007B64
:10533000D0F1010038BF002070471846704700BF09
:105340004B0803F1376000F5D830B0FBF1F0FCF703
:105350007BBF10B54B0803F1376000F5D830144619
:10536000B0FBF1F0FCF770FF2046BDE81040FCF701
:10537000A3BFFCF7CFBFFDF749B8FDF769B8FDF74C
:1053800051B8FDF738B8FDF777B808B50846FCF70F
:10539000E7FF012008BD10B5084614461146FDF789
:1053A0001FF8204610BDFFFF044B00221A714FF476
:1053B0007A711A73024A99601A60704728E1FF1FD8
:1053C000001F010008B5034B01221A60024B1B6845
:1053D000984708BD0C71034038E1FF1F08B5034B27
:1053E00001221A60024B5B68984708BD1C7103409C
:1053F00038E1FF1F08B5034B01221A60024B9B687E
:10540000984708BD2C71034038E1FF1F08B5034BD6
:1054100001221A60024BDB68984708BD3C710340CB
:1054200038E1FF1F054B1A6842F400021A60044B72
:1054300000221A60034B01221A7470473C8004401A
:105440000070034038E1FF1F064B01221A6003F58C
:1054500088333C331A6822F400021A60024B00229F
:105460001A7470470070034038E1FF1FF0B54478AC
:10547000104D114F23015A194260104A9E18866040
:1054800004F144060673066947F8246000249C5022
:10549000595103219950027B53119B0003F1604342
:1054A00003F5614302F01F02012101FA02F21A60C2
:1054B000F0BD00BF0071034038E1FF1F08710340D9
:1054C000F8B50E4B1B7C06460F460BB9FFF7AAFF3B
:1054D00000240A4D05F11102E3B2A25C42B9304644
:1054E000737039462C44FFF7C1FF01206074F8BD8A
:1054F0000134042CEDD10020F8BD00BF38E1FF1FBE
:10550000037B0122591103F01F0302FA03F3094A36
:1055100042F82130826808490023136042780A4427
:105520005374064A9A5C22B90133042BF9D1FFF770
:105530008BBF704780E100E038E1FF1F49E1FF1FAA
:10554000037870B504460D4616461BB1FFF7D8FF29
:1055500000232370256120463146FFF7B1FF10B1CB
:105560000123237000E02070207870BD037810B50F
:1055700004460BB1FFF7C4FF0023237010BD00BF2A
:105580002DE9F04785684668089FB54203D2761B2F
:10559000B6FBF7F603E0AE1BB6FBF7F6F64304687E
:1055A000AC460023BB4223D011F80380B444B8F1C9
:1055B000000F18BF00244FEA5C0844444FEA144926
:1055C000444449F3C03A4FEA14488AEA490948F387
:1055D000C03A8AEA4808A9F50049A8F5004848F306
:1055E0004E0849F34E09C84422F813800133D9E725
:1055F00003FB065304608360BDE8F0872DE9F047A4
:1056000085684668089F0368B542924603D2761BB8
:10561000B6FBF7F603E0AE1BB6FBF7F6F643AC4677
:105620000024BC421BD00A5DB4440AB9634400E0C4
:1056300000234FEA13690D4A32F81980023232F919
:1056400019900FFA88F2C2EB0902C3F30F2909FB84
:1056500002F208EB22482AF814800134E1E704FB47
:10566000065484600360BDE8F08700BF60D301008A
:105670002DE9F04F83684468D0F800C0A34289B098
:1056800004D2129DE41AB4FBF5FB05E0129E1C1B2C
:10569000B4FBF6F46FEA040B129DB0F91090129E61
:1056A000CDF8109047F6FF74B4FBF5F4B0F90E5046
:1056B0000293C9EB050565430E44059506960395CF
:1056C000069DA94268D0039DDDF810A0DDF8089082
:1056D0000AEBE5344FF4F046664311F8014BD94428
:1056E000002C4FEA590718BF4FF0000CBC444FEA9A
:1056F0001C4444F3C035F613CDF8089006F5006657
:1057000085EA4409B6B2A9F5004919FB06F9C9F3BF
:10571000CF39274C009689F400494FEA292AA51C65
:1057200034F81A8035F91AA00FFA88F6BC44C6EB93
:105730000A0A5FFA89F94FEA1C47CDF81CA009FB59
:105740000AFA47F3C03989EA4707DDF80090A7F560
:10575000004717FB09F6C6F3CF3608EB2A2886F474
:105760000046371248F34E08A2F8008034F817407C
:1057700035F91770DDF80CA025B27D1BF6B2754324
:1057800004EB2525059C45F34E05A844A24422F8C8
:10579000028BCDF80CA093E7129EC289028206FB11
:1057A0000B338360C0F800C009B0BDE8F08F00BFC4
:1057B0003AAD01002DE9F04F8BB083680492426846
:1057C0000568934204D2149CD21AB2FBF4FB05E0A4
:1057D000149E9A1AB2FBF6F26FEA020B149CB0F90F
:1057E0001070149E059747F6FF72B2FBF4F2B0F901
:1057F0000E400293E41B54430E440794089603940E
:10580000089FB94277D0DDF80CC0DDF814A0029FE4
:105810000AEBEC324FF4F0446243D21302F500621B
:1058200092B2069211F8012B384CDDF818A05F44B3
:10583000002A4FEA570C18BF002565442E0E029728
:10584000A71C34F8162037F9168016B2C6EB0806E6
:10585000C5F30F2808FB06F602EB264616FB0AF9ED
:10586000C9F3CF392A4A89F400494FEA292A961CFC
:1058700032F81A8036F91A700FFA88FACAEB07075D
:105880005FFA89F909FB07FA6544049F08EB2A2AA5
:105890004AF34E0A4FEA156CA7F800A01D4F34F8E2
:1058A0001C4037F91CC027B2C7EB0C07C5F30F2CFF
:1058B0000CFB07F7DDF818C004EB274717FB0CF4C7
:1058C000C4F3CF3484F400442712E4B232F8172032
:1058D00036F9177016B2BE1B664302EB262646F356
:1058E0004E06049A039CB244079E22F802AB34444D
:1058F0000492039484E7C2890282149A056002FB31
:105900000B3383600BB0BDE8F08F00BF60D30100A4
:105910003CAF010062D30100B0F90E302DE9F04F29
:10592000C3F5FF43B0F916407F3304EB63034FEA3E
:1059300083199B120E2B28BF0E23DD1C01330F2B66
:10594000234C08BF0E23033354F8255054F823602A
:105950001FFA89F90023099CA34236D090E89000F1
:105960003C440460CC5C0CB10024046007683C0E2D
:105970004FEA440C0CF1020C35F8148035F90CB0E8
:1059800036F814400FFA88FAC7F30F27CAEB0B0A50
:1059900007FB0AFA08EB2A4836F90CA00FFA84FC38
:1059A000CCEB0A0C07FB0CF71FFA88F804EB274432
:1059B0000FFA88FC24B2CCEB040409FB04F408EBD6
:1059C000244822F813800133C5E7BDE8F08F00BFFB
:1059D000D48DFF1F4FF6FF73984228BF18464043EF
:1059E000800C70474FF6FF73984228BF18461B1A69
:1059F0005B43980C404270472DE9F04F8BB09846BE
:105A000008924368826804929A42044604D29B1A20
:105A1000149AB3FBF2F305E0049AD31A149AB3FB79
:105A2000F2F3DB430793149B0691D4F818B0049D5E
:105A300019440991069A099B9A4200F0D280069A6D
:105A40000799B4F90E3012F8016B06920D444FF429
:105A5000404A0AFB03FAEB00534528BF9A4676B347
:105A6000013E76022268C6F57F43FF332F0C07FB09
:105A70000323934206D3217B31B9534534BF002120
:105A8000012102E0012100E00021524505911AD3D5
:105A9000B4F91270BF10A7F50067BFB2A7823046F5
:105AA0003FB2A7EB9347FFF795FF78430BEBE03B43
:105AB0003046FFF797FF7843C713012305E00596AB
:105AC0003346374601E00123002721682944A942D3
:105AD00021602CBF00220122B8F1000F0AD008F18A
